{
  "_format": "hh-sol-artifact-1",
  "contractName": "Tender",
  "sourceName": "contracts/Tender.sol",
  "abi": [
    {
      "inputs": [],
      "stateMutability": "nonpayable",
      "type": "constructor"
    },
    {
      "inputs": [
        {
          "internalType": "uint256",
          "name": "",
          "type": "uint256"
        },
        {
          "internalType": "uint256",
          "name": "",
          "type": "uint256"
        }
      ],
      "name": "bids",
      "outputs": [
        {
          "internalType": "uint256",
          "name": "tenderId",
          "type": "uint256"
        },
        {
          "internalType": "address",
          "name": "bidder",
          "type": "address"
        },
        {
          "internalType": "uint256",
          "name": "bidAmount",
          "type": "uint256"
        }
      ],
      "stateMutability": "view",
      "type": "function"
    },
    {
      "inputs": [
        {
          "internalType": "uint256",
          "name": "tenderId",
          "type": "uint256"
        },
        {
          "internalType": "address",
          "name": "winnerAddress",
          "type": "address"
        }
      ],
      "name": "chooseWinner",
      "outputs": [],
      "stateMutability": "nonpayable",
      "type": "function"
    },
    {
      "inputs": [
        {
          "internalType": "string",
          "name": "description",
          "type": "string"
        },
        {
          "internalType": "uint256",
          "name": "minBidAmount",
          "type": "uint256"
        }
      ],
      "name": "createTender",
      "outputs": [],
      "stateMutability": "nonpayable",
      "type": "function"
    },
    {
      "inputs": [
        {
          "internalType": "uint256",
          "name": "tenderId",
          "type": "uint256"
        }
      ],
      "name": "getBids",
      "outputs": [
        {
          "components": [
            {
              "internalType": "uint256",
              "name": "tenderId",
              "type": "uint256"
            },
            {
              "internalType": "address",
              "name": "bidder",
              "type": "address"
            },
            {
              "internalType": "uint256",
              "name": "bidAmount",
              "type": "uint256"
            }
          ],
          "internalType": "struct Tender.Bid[]",
          "name": "",
          "type": "tuple[]"
        }
      ],
      "stateMutability": "view",
      "type": "function"
    },
    {
      "inputs": [
        {
          "internalType": "uint256",
          "name": "tenderId",
          "type": "uint256"
        }
      ],
      "name": "getTenderDetails",
      "outputs": [
        {
          "components": [
            {
              "internalType": "uint256",
              "name": "id",
              "type": "uint256"
            },
            {
              "internalType": "string",
              "name": "description",
              "type": "string"
            },
            {
              "internalType": "uint256",
              "name": "minBidAmount",
              "type": "uint256"
            },
            {
              "internalType": "bool",
              "name": "isOpen",
              "type": "bool"
            },
            {
              "internalType": "address",
              "name": "winner",
              "type": "address"
            }
          ],
          "internalType": "struct Tender.TenderDetails",
          "name": "",
          "type": "tuple"
        }
      ],
      "stateMutability": "view",
      "type": "function"
    },
    {
      "inputs": [],
      "name": "governmentOfficial",
      "outputs": [
        {
          "internalType": "address",
          "name": "",
          "type": "address"
        }
      ],
      "stateMutability": "view",
      "type": "function"
    },
    {
      "inputs": [
        {
          "internalType": "uint256",
          "name": "tenderId",
          "type": "uint256"
        },
        {
          "internalType": "uint256",
          "name": "bidAmount",
          "type": "uint256"
        }
      ],
      "name": "submitBid",
      "outputs": [],
      "stateMutability": "nonpayable",
      "type": "function"
    },
    {
      "inputs": [],
      "name": "tenderCounter",
      "outputs": [
        {
          "internalType": "uint256",
          "name": "",
          "type": "uint256"
        }
      ],
      "stateMutability": "view",
      "type": "function"
    },
    {
      "inputs": [
        {
          "internalType": "uint256",
          "name": "",
          "type": "uint256"
        }
      ],
      "name": "tenders",
      "outputs": [
        {
          "internalType": "uint256",
          "name": "id",
          "type": "uint256"
        },
        {
          "internalType": "string",
          "name": "description",
          "type": "string"
        },
        {
          "internalType": "uint256",
          "name": "minBidAmount",
          "type": "uint256"
        },
        {
          "internalType": "bool",
          "name": "isOpen",
          "type": "bool"
        },
        {
          "internalType": "address",
          "name": "winner",
          "type": "address"
        }
      ],
      "stateMutability": "view",
      "type": "function"
    }
  ],
  "bytecode": "0x6080604052348015600f57600080fd5b5033600360006101000a81548173ffffffffffffffffffffffffffffffffffffffff021916908373ffffffffffffffffffffffffffffffffffffffff16021790555061182b806100606000396000f3fe608060405234801561001057600080fd5b50600436106100935760003560e01c806354b0799a1161006657806354b0799a1461014a5780635a60105d146101665780637b3c4baa14610182578063b821da1b146101b4578063bfb9e8f3146101d057610093565b8063131d9a271461009857806330d2210c146100c8578063465e1def146100e657806353ee895d1461011a575b600080fd5b6100b260048036038101906100ad9190610bbb565b6101ee565b6040516100bf9190610d29565b60405180910390f35b6100d06102ca565b6040516100dd9190610d5a565b60405180910390f35b61010060048036038101906100fb9190610bbb565b6102d0565b604051610111959493929190610e2f565b60405180910390f35b610134600480360381019061012f9190610bbb565b6103bb565b6040516101419190610f58565b60405180910390f35b610164600480360381019061015f91906110af565b6104ff565b005b610180600480360381019061017b9190611137565b610695565b005b61019c60048036038101906101979190611177565b610913565b6040516101ab939291906111b7565b60405180910390f35b6101ce60048036038101906101c99190611177565b61097a565b005b6101d8610b04565b6040516101e591906111ee565b60405180910390f35b606060026000838152602001908152602001600020805480602002602001604051908101604052809291908181526020016000905b828210156102bf5783829060005260206000209060030201604051806060016040529081600082015481526020016001820160009054906101000a900473ffffffffffffffffffffffffffffffffffffffff1673ffffffffffffffffffffffffffffffffffffffff1673ffffffffffffffffffffffffffffffffffffffff16815260200160028201548152505081526020019060010190610223565b505050509050919050565b60005481565b60016020528060005260406000206000915090508060000154908060010180546102f990611238565b80601f016020809104026020016040519081016040528092919081815260200182805461032590611238565b80156103725780601f1061034757610100808354040283529160200191610372565b820191906000526020600020905b81548152906001019060200180831161035557829003601f168201915b5050505050908060020154908060030160009054906101000a900460ff16908060030160019054906101000a900473ffffffffffffffffffffffffffffffffffffffff16905085565b6103c3610b2a565b600160008381526020019081526020016000206040518060a0016040529081600082015481526020016001820180546103fb90611238565b80601f016020809104026020016040519081016040528092919081815260200182805461042790611238565b80156104745780601f1061044957610100808354040283529160200191610474565b820191906000526020600020905b81548152906001019060200180831161045757829003601f168201915b50505050508152602001600282015481526020016003820160009054906101000a900460ff161515151581526020016003820160019054906101000a900473ffffffffffffffffffffffffffffffffffffffff1673ffffffffffffffffffffffffffffffffffffffff1673ffffffffffffffffffffffffffffffffffffffff16815250509050919050565b600360009054906101000a900473ffffffffffffffffffffffffffffffffffffffff1673ffffffffffffffffffffffffffffffffffffffff163373ffffffffffffffffffffffffffffffffffffffff161461058f576040517f08c379a0000000000000000000000000000000000000000000000000000000008152600401610586906112db565b60405180910390fd5b6000808154809291906105a19061132a565b91905055506040518060a001604052806000548152602001838152602001828152602001600115158152602001600073ffffffffffffffffffffffffffffffffffffffff16815250600160008054815260200190815260200160002060008201518160000155602082015181600101908161061c919061151e565b506040820151816002015560608201518160030160006101000a81548160ff02191690831515021790555060808201518160030160016101000a81548173ffffffffffffffffffffffffffffffffffffffff021916908373ffffffffffffffffffffffffffffffffffffffff1602179055509050505050565b600360009054906101000a900473ffffffffffffffffffffffffffffffffffffffff1673ffffffffffffffffffffffffffffffffffffffff163373ffffffffffffffffffffffffffffffffffffffff1614610725576040517f08c379a000000000000000000000000000000000000000000000000000000000815260040161071c906112db565b60405180910390fd5b6001600083815260200190815260200160002060030160009054906101000a900460ff16610788576040517f08c379a000000000000000000000000000000000000000000000000000000000815260040161077f9061163c565b60405180910390fd5b6000805b6002600085815260200190815260200160002080549050811015610849578273ffffffffffffffffffffffffffffffffffffffff166002600086815260200190815260200160002082815481106107e6576107e561165c565b5b906000526020600020906003020160010160009054906101000a900473ffffffffffffffffffffffffffffffffffffffff1673ffffffffffffffffffffffffffffffffffffffff160361083c5760019150610849565b808060010191505061078c565b508061088a576040517f08c379a0000000000000000000000000000000000000000000000000000000008152600401610881906116fd565b60405180910390fd5b816001600085815260200190815260200160002060030160016101000a81548173ffffffffffffffffffffffffffffffffffffffff021916908373ffffffffffffffffffffffffffffffffffffffff16021790555060006001600085815260200190815260200160002060030160006101000a81548160ff021916908315150217905550505050565b6002602052816000526040600020818154811061092f57600080fd5b9060005260206000209060030201600091509150508060000154908060010160009054906101000a900473ffffffffffffffffffffffffffffffffffffffff16908060020154905083565b6001600083815260200190815260200160002060030160009054906101000a900460ff166109dd576040517f08c379a00000000000000000000000000000000000000000000000000000000081526004016109d490611769565b60405180910390fd5b6001600083815260200190815260200160002060020154811015610a36576040517f08c379a0000000000000000000000000000000000000000000000000000000008152600401610a2d906117d5565b60405180910390fd5b6002600083815260200190815260200160002060405180606001604052808481526020013373ffffffffffffffffffffffffffffffffffffffff1681526020018381525090806001815401808255809150506001900390600052602060002090600302016000909190919091506000820151816000015560208201518160010160006101000a81548173ffffffffffffffffffffffffffffffffffffffff021916908373ffffffffffffffffffffffffffffffffffffffff1602179055506040820151816002015550505050565b600360009054906101000a900473ffffffffffffffffffffffffffffffffffffffff1681565b6040518060a00160405280600081526020016060815260200160008152602001600015158152602001600073ffffffffffffffffffffffffffffffffffffffff1681525090565b6000604051905090565b600080fd5b600080fd5b6000819050919050565b610b9881610b85565b8114610ba357600080fd5b50565b600081359050610bb581610b8f565b92915050565b600060208284031215610bd157610bd0610b7b565b5b6000610bdf84828501610ba6565b91505092915050565b600081519050919050565b600082825260208201905092915050565b6000819050602082019050919050565b610c1d81610b85565b82525050565b600073ffffffffffffffffffffffffffffffffffffffff82169050919050565b6000610c4e82610c23565b9050919050565b610c5e81610c43565b82525050565b606082016000820151610c7a6000850182610c14565b506020820151610c8d6020850182610c55565b506040820151610ca06040850182610c14565b50505050565b6000610cb28383610c64565b60608301905092915050565b6000602082019050919050565b6000610cd682610be8565b610ce08185610bf3565b9350610ceb83610c04565b8060005b83811015610d1c578151610d038882610ca6565b9750610d0e83610cbe565b925050600181019050610cef565b5085935050505092915050565b60006020820190508181036000830152610d438184610ccb565b905092915050565b610d5481610b85565b82525050565b6000602082019050610d6f6000830184610d4b565b92915050565b600081519050919050565b600082825260208201905092915050565b60005b83811015610daf578082015181840152602081019050610d94565b60008484015250505050565b6000601f19601f8301169050919050565b6000610dd782610d75565b610de18185610d80565b9350610df1818560208601610d91565b610dfa81610dbb565b840191505092915050565b60008115159050919050565b610e1a81610e05565b82525050565b610e2981610c43565b82525050565b600060a082019050610e446000830188610d4b565b8181036020830152610e568187610dcc565b9050610e656040830186610d4b565b610e726060830185610e11565b610e7f6080830184610e20565b9695505050505050565b600082825260208201905092915050565b6000610ea582610d75565b610eaf8185610e89565b9350610ebf818560208601610d91565b610ec881610dbb565b840191505092915050565b610edc81610e05565b82525050565b600060a083016000830151610efa6000860182610c14565b5060208301518482036020860152610f128282610e9a565b9150506040830151610f276040860182610c14565b506060830151610f3a6060860182610ed3565b506080830151610f4d6080860182610c55565b508091505092915050565b60006020820190508181036000830152610f728184610ee2565b905092915050565b600080fd5b600080fd5b7f4e487b7100000000000000000000000000000000000000000000000000000000600052604160045260246000fd5b610fbc82610dbb565b810181811067ffffffffffffffff82111715610fdb57610fda610f84565b5b80604052505050565b6000610fee610b71565b9050610ffa8282610fb3565b919050565b600067ffffffffffffffff82111561101a57611019610f84565b5b61102382610dbb565b9050602081019050919050565b82818337600083830152505050565b600061105261104d84610fff565b610fe4565b90508281526020810184848401111561106e5761106d610f7f565b5b611079848285611030565b509392505050565b600082601f83011261109657611095610f7a565b5b81356110a684826020860161103f565b91505092915050565b600080604083850312156110c6576110c5610b7b565b5b600083013567ffffffffffffffff8111156110e4576110e3610b80565b5b6110f085828601611081565b925050602061110185828601610ba6565b9150509250929050565b61111481610c43565b811461111f57600080fd5b50565b6000813590506111318161110b565b92915050565b6000806040838503121561114e5761114d610b7b565b5b600061115c85828601610ba6565b925050602061116d85828601611122565b9150509250929050565b6000806040838503121561118e5761118d610b7b565b5b600061119c85828601610ba6565b92505060206111ad85828601610ba6565b9150509250929050565b60006060820190506111cc6000830186610d4b565b6111d96020830185610e20565b6111e66040830184610d4b565b949350505050565b60006020820190506112036000830184610e20565b92915050565b7f4e487b7100000000000000000000000000000000000000000000000000000000600052602260045260246000fd5b6000600282049050600182168061125057607f821691505b60208210810361126357611262611209565b5b50919050565b7f4f6e6c7920676f7665726e6d656e74206f6666696369616c732063616e20706560008201527f72666f726d207468697320616374696f6e000000000000000000000000000000602082015250565b60006112c5603183610d80565b91506112d082611269565b604082019050919050565b600060208201905081810360008301526112f4816112b8565b9050919050565b7f4e487b7100000000000000000000000000000000000000000000000000000000600052601160045260246000fd5b600061133582610b85565b91507fffffffffffffffffffffffffffffffffffffffffffffffffffffffffffffffff8203611367576113666112fb565b5b600182019050919050565b60008190508160005260206000209050919050565b60006020601f8301049050919050565b600082821b905092915050565b6000600883026113d47fffffffffffffffffffffffffffffffffffffffffffffffffffffffffffffffff82611397565b6113de8683611397565b95508019841693508086168417925050509392505050565b6000819050919050565b600061141b61141661141184610b85565b6113f6565b610b85565b9050919050565b6000819050919050565b61143583611400565b61144961144182611422565b8484546113a4565b825550505050565b600090565b61145e611451565b61146981848461142c565b505050565b5b8181101561148d57611482600082611456565b60018101905061146f565b5050565b601f8211156114d2576114a381611372565b6114ac84611387565b810160208510156114bb578190505b6114cf6114c785611387565b83018261146e565b50505b505050565b600082821c905092915050565b60006114f5600019846008026114d7565b1980831691505092915050565b600061150e83836114e4565b9150826002028217905092915050565b61152782610d75565b67ffffffffffffffff8111156115405761153f610f84565b5b61154a8254611238565b611555828285611491565b600060209050601f8311600181146115885760008415611576578287015190505b6115808582611502565b8655506115e8565b601f19841661159686611372565b60005b828110156115be57848901518255600182019150602085019450602081019050611599565b868310156115db57848901516115d7601f8916826114e4565b8355505b6001600288020188555050505b505050505050565b7f54656e64657220697320616c726561647920636c6f7365640000000000000000600082015250565b6000611626601883610d80565b9150611631826115f0565b602082019050919050565b6000602082019050818103600083015261165581611619565b9050919050565b7f4e487b7100000000000000000000000000000000000000000000000000000000600052603260045260246000fd5b7f53656c65637465642061646472657373206973206e6f7420612076616c69642060008201527f6269646465720000000000000000000000000000000000000000000000000000602082015250565b60006116e7602683610d80565b91506116f28261168b565b604082019050919050565b60006020820190508181036000830152611716816116da565b9050919050565b7f54656e64657220697320636c6f73656400000000000000000000000000000000600082015250565b6000611753601083610d80565b915061175e8261171d565b602082019050919050565b6000602082019050818103600083015261178281611746565b9050919050565b7f42696420616d6f756e7420697320746f6f206c6f770000000000000000000000600082015250565b60006117bf601583610d80565b91506117ca82611789565b602082019050919050565b600060208201905081810360008301526117ee816117b2565b905091905056fea2646970667358221220353f28ad6c91dcab970a832130ad63f22e05947504f3ccc1cbaee905d754dd3b64736f6c634300081b0033",
  "linkReferences": {},
  "deployedLinkReferences": {}
}