{
  "_format": "hh-sol-artifact-1",
  "contractName": "Tender_Milestone",
  "sourceName": "contracts/Tender_Milestone.sol",
  "abi": [
    {
      "inputs": [],
      "stateMutability": "nonpayable",
      "type": "constructor"
    },
    {
      "inputs": [
        {
          "internalType": "uint256",
          "name": "tenderId",
          "type": "uint256"
        },
        {
          "internalType": "uint256",
          "name": "milestoneId",
          "type": "uint256"
        }
      ],
      "name": "approveMilestone",
      "outputs": [],
      "stateMutability": "nonpayable",
      "type": "function"
    },
    {
      "inputs": [
        {
          "internalType": "uint256",
          "name": "",
          "type": "uint256"
        },
        {
          "internalType": "uint256",
          "name": "",
          "type": "uint256"
        }
      ],
      "name": "bids",
      "outputs": [
        {
          "internalType": "uint256",
          "name": "tenderId",
          "type": "uint256"
        },
        {
          "internalType": "address",
          "name": "bidder",
          "type": "address"
        },
        {
          "internalType": "uint256",
          "name": "bidAmount",
          "type": "uint256"
        }
      ],
      "stateMutability": "view",
      "type": "function"
    },
    {
      "inputs": [
        {
          "internalType": "uint256",
          "name": "tenderId",
          "type": "uint256"
        },
        {
          "internalType": "address",
          "name": "winnerAddress",
          "type": "address"
        }
      ],
      "name": "chooseWinner",
      "outputs": [],
      "stateMutability": "nonpayable",
      "type": "function"
    },
    {
      "inputs": [
        {
          "internalType": "uint256",
          "name": "tenderId",
          "type": "uint256"
        },
        {
          "internalType": "string",
          "name": "description",
          "type": "string"
        },
        {
          "internalType": "uint256",
          "name": "amount",
          "type": "uint256"
        }
      ],
      "name": "createMilestone",
      "outputs": [],
      "stateMutability": "nonpayable",
      "type": "function"
    },
    {
      "inputs": [
        {
          "internalType": "string",
          "name": "description",
          "type": "string"
        },
        {
          "internalType": "uint256",
          "name": "minBidAmount",
          "type": "uint256"
        },
        {
          "internalType": "uint256",
          "name": "totalFunds",
          "type": "uint256"
        }
      ],
      "name": "createTender",
      "outputs": [],
      "stateMutability": "nonpayable",
      "type": "function"
    },
    {
      "inputs": [
        {
          "internalType": "uint256",
          "name": "tenderId",
          "type": "uint256"
        }
      ],
      "name": "getBids",
      "outputs": [
        {
          "components": [
            {
              "internalType": "uint256",
              "name": "tenderId",
              "type": "uint256"
            },
            {
              "internalType": "address",
              "name": "bidder",
              "type": "address"
            },
            {
              "internalType": "uint256",
              "name": "bidAmount",
              "type": "uint256"
            }
          ],
          "internalType": "struct Tender_Milestone.Bid[]",
          "name": "",
          "type": "tuple[]"
        }
      ],
      "stateMutability": "view",
      "type": "function"
    },
    {
      "inputs": [
        {
          "internalType": "uint256",
          "name": "tenderId",
          "type": "uint256"
        }
      ],
      "name": "getMilestones",
      "outputs": [
        {
          "components": [
            {
              "internalType": "uint256",
              "name": "id",
              "type": "uint256"
            },
            {
              "internalType": "string",
              "name": "description",
              "type": "string"
            },
            {
              "internalType": "uint256",
              "name": "amount",
              "type": "uint256"
            },
            {
              "internalType": "bool",
              "name": "isCompleted",
              "type": "bool"
            }
          ],
          "internalType": "struct Tender_Milestone.Milestone[]",
          "name": "",
          "type": "tuple[]"
        }
      ],
      "stateMutability": "view",
      "type": "function"
    },
    {
      "inputs": [
        {
          "internalType": "uint256",
          "name": "tenderId",
          "type": "uint256"
        }
      ],
      "name": "getTenderDetails",
      "outputs": [
        {
          "components": [
            {
              "internalType": "uint256",
              "name": "id",
              "type": "uint256"
            },
            {
              "internalType": "string",
              "name": "description",
              "type": "string"
            },
            {
              "internalType": "uint256",
              "name": "minBidAmount",
              "type": "uint256"
            },
            {
              "internalType": "bool",
              "name": "isOpen",
              "type": "bool"
            },
            {
              "internalType": "address",
              "name": "winner",
              "type": "address"
            },
            {
              "internalType": "uint256",
              "name": "totalFunds",
              "type": "uint256"
            }
          ],
          "internalType": "struct Tender_Milestone.TenderDetails",
          "name": "",
          "type": "tuple"
        }
      ],
      "stateMutability": "view",
      "type": "function"
    },
    {
      "inputs": [],
      "name": "governmentOfficial",
      "outputs": [
        {
          "internalType": "address",
          "name": "",
          "type": "address"
        }
      ],
      "stateMutability": "view",
      "type": "function"
    },
    {
      "inputs": [
        {
          "internalType": "uint256",
          "name": "",
          "type": "uint256"
        },
        {
          "internalType": "uint256",
          "name": "",
          "type": "uint256"
        }
      ],
      "name": "milestones",
      "outputs": [
        {
          "internalType": "uint256",
          "name": "id",
          "type": "uint256"
        },
        {
          "internalType": "string",
          "name": "description",
          "type": "string"
        },
        {
          "internalType": "uint256",
          "name": "amount",
          "type": "uint256"
        },
        {
          "internalType": "bool",
          "name": "isCompleted",
          "type": "bool"
        }
      ],
      "stateMutability": "view",
      "type": "function"
    },
    {
      "inputs": [
        {
          "internalType": "uint256",
          "name": "tenderId",
          "type": "uint256"
        },
        {
          "internalType": "uint256",
          "name": "bidAmount",
          "type": "uint256"
        }
      ],
      "name": "submitBid",
      "outputs": [],
      "stateMutability": "nonpayable",
      "type": "function"
    },
    {
      "inputs": [],
      "name": "tenderCounter",
      "outputs": [
        {
          "internalType": "uint256",
          "name": "",
          "type": "uint256"
        }
      ],
      "stateMutability": "view",
      "type": "function"
    },
    {
      "inputs": [
        {
          "internalType": "uint256",
          "name": "",
          "type": "uint256"
        }
      ],
      "name": "tenders",
      "outputs": [
        {
          "internalType": "uint256",
          "name": "id",
          "type": "uint256"
        },
        {
          "internalType": "string",
          "name": "description",
          "type": "string"
        },
        {
          "internalType": "uint256",
          "name": "minBidAmount",
          "type": "uint256"
        },
        {
          "internalType": "bool",
          "name": "isOpen",
          "type": "bool"
        },
        {
          "internalType": "address",
          "name": "winner",
          "type": "address"
        },
        {
          "internalType": "uint256",
          "name": "totalFunds",
          "type": "uint256"
        }
      ],
      "stateMutability": "view",
      "type": "function"
    },
    {
      "stateMutability": "payable",
      "type": "receive"
    }
  ],
  "bytecode": "0x6080604052348015600f57600080fd5b5033600460006101000a81548173ffffffffffffffffffffffffffffffffffffffff021916908373ffffffffffffffffffffffffffffffffffffffff16021790555061249a806100606000396000f3fe6080604052600436106100c65760003560e01c806353ee895d1161007f578063b821da1b11610059578063b821da1b146102c7578063bfb9e8f3146102f0578063da13b0d31461031b578063e6604e7d14610344576100cd565b806353ee895d146102225780635a60105d1461025f5780637b3c4baa14610288576100cd565b8063131d9a27146100d25780631c376c631461010f57806320913da51461014f57806330d2210c1461017857806342c549c0146101a3578063465e1def146101e0576100cd565b366100cd57005b600080fd5b3480156100de57600080fd5b506100f960048036038101906100f491906113fc565b61036d565b604051610106919061156a565b60405180910390f35b34801561011b57600080fd5b506101366004803603810190610131919061158c565b610449565b6040516101469493929190611686565b60405180910390f35b34801561015b57600080fd5b506101766004803603810190610171919061158c565b61052b565b005b34801561018457600080fd5b5061018d6107de565b60405161019a91906116d2565b60405180910390f35b3480156101af57600080fd5b506101ca60048036038101906101c591906113fc565b6107e4565b6040516101d7919061186b565b60405180910390f35b3480156101ec57600080fd5b50610207600480360381019061020291906113fc565b610917565b6040516102199695949392919061189c565b60405180910390f35b34801561022e57600080fd5b50610249600480360381019061024491906113fc565b610a08565b604051610256919061198d565b60405180910390f35b34801561026b57600080fd5b50610286600480360381019061028191906119db565b610b56565b005b34801561029457600080fd5b506102af60048036038101906102aa919061158c565b610dd4565b6040516102be93929190611a1b565b60405180910390f35b3480156102d357600080fd5b506102ee60048036038101906102e9919061158c565b610e3b565b005b3480156102fc57600080fd5b50610305610fc5565b6040516103129190611a52565b60405180910390f35b34801561032757600080fd5b50610342600480360381019061033d9190611ba2565b610feb565b005b34801561035057600080fd5b5061036b60048036038101906103669190611c11565b6111bd565b005b606060026000838152602001908152602001600020805480602002602001604051908101604052809291908181526020016000905b8282101561043e5783829060005260206000209060030201604051806060016040529081600082015481526020016001820160009054906101000a900473ffffffffffffffffffffffffffffffffffffffff1673ffffffffffffffffffffffffffffffffffffffff1673ffffffffffffffffffffffffffffffffffffffff168152602001600282015481525050815260200190600101906103a2565b505050509050919050565b6003602052816000526040600020818154811061046557600080fd5b90600052602060002090600402016000915091505080600001549080600101805461048f90611caf565b80601f01602080910402602001604051908101604052809291908181526020018280546104bb90611caf565b80156105085780601f106104dd57610100808354040283529160200191610508565b820191906000526020600020905b8154815290600101906020018083116104eb57829003601f168201915b5050505050908060020154908060030160009054906101000a900460ff16905084565b600460009054906101000a900473ffffffffffffffffffffffffffffffffffffffff1673ffffffffffffffffffffffffffffffffffffffff163373ffffffffffffffffffffffffffffffffffffffff16146105bb576040517f08c379a00000000000000000000000000000000000000000000000000000000081526004016105b290611d52565b60405180910390fd5b60001515600360008481526020019081526020016000206001836105df9190611da1565b815481106105f0576105ef611dd5565b5b906000526020600020906004020160030160009054906101000a900460ff16151514610651576040517f08c379a000000000000000000000000000000000000000000000000000000000815260040161064890611e50565b60405180910390fd5b6001600360008481526020019081526020016000206001836106739190611da1565b8154811061068457610683611dd5565b5b906000526020600020906004020160030160006101000a81548160ff021916908315150217905550600360008381526020019081526020016000206001826106cc9190611da1565b815481106106dd576106dc611dd5565b5b9060005260206000209060040201600201546001600084815260200190815260200160002060040160008282546107149190611da1565b925050819055506001600083815260200190815260200160002060030160019054906101000a900473ffffffffffffffffffffffffffffffffffffffff1673ffffffffffffffffffffffffffffffffffffffff166108fc6003600085815260200190815260200160002060018461078b9190611da1565b8154811061079c5761079b611dd5565b5b9060005260206000209060040201600201549081150290604051600060405180830381858888f193505050501580156107d9573d6000803e3d6000fd5b505050565b60005481565b606060036000838152602001908152602001600020805480602002602001604051908101604052809291908181526020016000905b8282101561090c57838290600052602060002090600402016040518060800160405290816000820154815260200160018201805461085690611caf565b80601f016020809104026020016040519081016040528092919081815260200182805461088290611caf565b80156108cf5780601f106108a4576101008083540402835291602001916108cf565b820191906000526020600020905b8154815290600101906020018083116108b257829003601f168201915b50505050508152602001600282015481526020016003820160009054906101000a900460ff16151515158152505081526020019060010190610819565b505050509050919050565b600160205280600052604060002060009150905080600001549080600101805461094090611caf565b80601f016020809104026020016040519081016040528092919081815260200182805461096c90611caf565b80156109b95780601f1061098e576101008083540402835291602001916109b9565b820191906000526020600020905b81548152906001019060200180831161099c57829003601f168201915b5050505050908060020154908060030160009054906101000a900460ff16908060030160019054906101000a900473ffffffffffffffffffffffffffffffffffffffff16908060040154905086565b610a10611364565b600160008381526020019081526020016000206040518060c001604052908160008201548152602001600182018054610a4890611caf565b80601f0160208091040260200160405190810160405280929190818152602001828054610a7490611caf565b8015610ac15780601f10610a9657610100808354040283529160200191610ac1565b820191906000526020600020905b815481529060010190602001808311610aa457829003601f168201915b50505050508152602001600282015481526020016003820160009054906101000a900460ff161515151581526020016003820160019054906101000a900473ffffffffffffffffffffffffffffffffffffffff1673ffffffffffffffffffffffffffffffffffffffff1673ffffffffffffffffffffffffffffffffffffffff1681526020016004820154815250509050919050565b600460009054906101000a900473ffffffffffffffffffffffffffffffffffffffff1673ffffffffffffffffffffffffffffffffffffffff163373ffffffffffffffffffffffffffffffffffffffff1614610be6576040517f08c379a0000000000000000000000000000000000000000000000000000000008152600401610bdd90611d52565b60405180910390fd5b6001600083815260200190815260200160002060030160009054906101000a900460ff16610c49576040517f08c379a0000000000000000000000000000000000000000000000000000000008152600401610c4090611ebc565b60405180910390fd5b6000805b6002600085815260200190815260200160002080549050811015610d0a578273ffffffffffffffffffffffffffffffffffffffff16600260008681526020019081526020016000208281548110610ca757610ca6611dd5565b5b906000526020600020906003020160010160009054906101000a900473ffffffffffffffffffffffffffffffffffffffff1673ffffffffffffffffffffffffffffffffffffffff1603610cfd5760019150610d0a565b8080600101915050610c4d565b5080610d4b576040517f08c379a0000000000000000000000000000000000000000000000000000000008152600401610d4290611f4e565b60405180910390fd5b816001600085815260200190815260200160002060030160016101000a81548173ffffffffffffffffffffffffffffffffffffffff021916908373ffffffffffffffffffffffffffffffffffffffff16021790555060006001600085815260200190815260200160002060030160006101000a81548160ff021916908315150217905550505050565b60026020528160005260406000208181548110610df057600080fd5b9060005260206000209060030201600091509150508060000154908060010160009054906101000a900473ffffffffffffffffffffffffffffffffffffffff16908060020154905083565b6001600083815260200190815260200160002060030160009054906101000a900460ff16610e9e576040517f08c379a0000000000000000000000000000000000000000000000000000000008152600401610e9590611fba565b60405180910390fd5b6001600083815260200190815260200160002060020154811015610ef7576040517f08c379a0000000000000000000000000000000000000000000000000000000008152600401610eee90612026565b60405180910390fd5b6002600083815260200190815260200160002060405180606001604052808481526020013373ffffffffffffffffffffffffffffffffffffffff1681526020018381525090806001815401808255809150506001900390600052602060002090600302016000909190919091506000820151816000015560208201518160010160006101000a81548173ffffffffffffffffffffffffffffffffffffffff021916908373ffffffffffffffffffffffffffffffffffffffff1602179055506040820151816002015550505050565b600460009054906101000a900473ffffffffffffffffffffffffffffffffffffffff1681565b826001600082815260200190815260200160002060030160019054906101000a900473ffffffffffffffffffffffffffffffffffffffff1673ffffffffffffffffffffffffffffffffffffffff163373ffffffffffffffffffffffffffffffffffffffff1614611090576040517f08c379a0000000000000000000000000000000000000000000000000000000008152600401611087906120b8565b60405180910390fd5b60016000858152602001908152602001600020600401548211156110e9576040517f08c379a00000000000000000000000000000000000000000000000000000000081526004016110e09061214a565b60405180910390fd5b6003600085815260200190815260200160002060405180608001604052806001600360008981526020019081526020016000208054905061112a919061216a565b815260200185815260200184815260200160001515815250908060018154018082558091505060019003906000526020600020906004020160009091909190915060008201518160000155602082015181600101908161118a919061234a565b506040820151816002015560608201518160030160006101000a81548160ff021916908315150217905550505050505050565b600460009054906101000a900473ffffffffffffffffffffffffffffffffffffffff1673ffffffffffffffffffffffffffffffffffffffff163373ffffffffffffffffffffffffffffffffffffffff161461124d576040517f08c379a000000000000000000000000000000000000000000000000000000000815260040161124490611d52565b60405180910390fd5b60008081548092919061125f9061241c565b91905055506040518060c001604052806000548152602001848152602001838152602001600115158152602001600073ffffffffffffffffffffffffffffffffffffffff1681526020018281525060016000805481526020019081526020016000206000820151816000015560208201518160010190816112e0919061234a565b506040820151816002015560608201518160030160006101000a81548160ff02191690831515021790555060808201518160030160016101000a81548173ffffffffffffffffffffffffffffffffffffffff021916908373ffffffffffffffffffffffffffffffffffffffff16021790555060a08201518160040155905050505050565b6040518060c00160405280600081526020016060815260200160008152602001600015158152602001600073ffffffffffffffffffffffffffffffffffffffff168152602001600081525090565b6000604051905090565b600080fd5b600080fd5b6000819050919050565b6113d9816113c6565b81146113e457600080fd5b50565b6000813590506113f6816113d0565b92915050565b600060208284031215611412576114116113bc565b5b6000611420848285016113e7565b91505092915050565b600081519050919050565b600082825260208201905092915050565b6000819050602082019050919050565b61145e816113c6565b82525050565b600073ffffffffffffffffffffffffffffffffffffffff82169050919050565b600061148f82611464565b9050919050565b61149f81611484565b82525050565b6060820160008201516114bb6000850182611455565b5060208201516114ce6020850182611496565b5060408201516114e16040850182611455565b50505050565b60006114f383836114a5565b60608301905092915050565b6000602082019050919050565b600061151782611429565b6115218185611434565b935061152c83611445565b8060005b8381101561155d57815161154488826114e7565b975061154f836114ff565b925050600181019050611530565b5085935050505092915050565b60006020820190508181036000830152611584818461150c565b905092915050565b600080604083850312156115a3576115a26113bc565b5b60006115b1858286016113e7565b92505060206115c2858286016113e7565b9150509250929050565b6115d5816113c6565b82525050565b600081519050919050565b600082825260208201905092915050565b60005b838110156116155780820151818401526020810190506115fa565b60008484015250505050565b6000601f19601f8301169050919050565b600061163d826115db565b61164781856115e6565b93506116578185602086016115f7565b61166081611621565b840191505092915050565b60008115159050919050565b6116808161166b565b82525050565b600060808201905061169b60008301876115cc565b81810360208301526116ad8186611632565b90506116bc60408301856115cc565b6116c96060830184611677565b95945050505050565b60006020820190506116e760008301846115cc565b92915050565b600081519050919050565b600082825260208201905092915050565b6000819050602082019050919050565b600082825260208201905092915050565b6000611735826115db565b61173f8185611719565b935061174f8185602086016115f7565b61175881611621565b840191505092915050565b61176c8161166b565b82525050565b600060808301600083015161178a6000860182611455565b50602083015184820360208601526117a2828261172a565b91505060408301516117b76040860182611455565b5060608301516117ca6060860182611763565b508091505092915050565b60006117e18383611772565b905092915050565b6000602082019050919050565b6000611801826116ed565b61180b81856116f8565b93508360208202850161181d85611709565b8060005b85811015611859578484038952815161183a85826117d5565b9450611845836117e9565b925060208a01995050600181019050611821565b50829750879550505050505092915050565b6000602082019050818103600083015261188581846117f6565b905092915050565b61189681611484565b82525050565b600060c0820190506118b160008301896115cc565b81810360208301526118c38188611632565b90506118d260408301876115cc565b6118df6060830186611677565b6118ec608083018561188d565b6118f960a08301846115cc565b979650505050505050565b600060c08301600083015161191c6000860182611455565b5060208301518482036020860152611934828261172a565b91505060408301516119496040860182611455565b50606083015161195c6060860182611763565b50608083015161196f6080860182611496565b5060a083015161198260a0860182611455565b508091505092915050565b600060208201905081810360008301526119a78184611904565b905092915050565b6119b881611484565b81146119c357600080fd5b50565b6000813590506119d5816119af565b92915050565b600080604083850312156119f2576119f16113bc565b5b6000611a00858286016113e7565b9250506020611a11858286016119c6565b9150509250929050565b6000606082019050611a3060008301866115cc565b611a3d602083018561188d565b611a4a60408301846115cc565b949350505050565b6000602082019050611a67600083018461188d565b92915050565b600080fd5b600080fd5b7f4e487b7100000000000000000000000000000000000000000000000000000000600052604160045260246000fd5b611aaf82611621565b810181811067ffffffffffffffff82111715611ace57611acd611a77565b5b80604052505050565b6000611ae16113b2565b9050611aed8282611aa6565b919050565b600067ffffffffffffffff821115611b0d57611b0c611a77565b5b611b1682611621565b9050602081019050919050565b82818337600083830152505050565b6000611b45611b4084611af2565b611ad7565b905082815260208101848484011115611b6157611b60611a72565b5b611b6c848285611b23565b509392505050565b600082601f830112611b8957611b88611a6d565b5b8135611b99848260208601611b32565b91505092915050565b600080600060608486031215611bbb57611bba6113bc565b5b6000611bc9868287016113e7565b935050602084013567ffffffffffffffff811115611bea57611be96113c1565b5b611bf686828701611b74565b9250506040611c07868287016113e7565b9150509250925092565b600080600060608486031215611c2a57611c296113bc565b5b600084013567ffffffffffffffff811115611c4857611c476113c1565b5b611c5486828701611b74565b9350506020611c65868287016113e7565b9250506040611c76868287016113e7565b9150509250925092565b7f4e487b7100000000000000000000000000000000000000000000000000000000600052602260045260246000fd5b60006002820490506001821680611cc757607f821691505b602082108103611cda57611cd9611c80565b5b50919050565b7f4f6e6c7920676f7665726e6d656e74206f6666696369616c732063616e20706560008201527f72666f726d207468697320616374696f6e000000000000000000000000000000602082015250565b6000611d3c6031836115e6565b9150611d4782611ce0565b604082019050919050565b60006020820190508181036000830152611d6b81611d2f565b9050919050565b7f4e487b7100000000000000000000000000000000000000000000000000000000600052601160045260246000fd5b6000611dac826113c6565b9150611db7836113c6565b9250828203905081811115611dcf57611dce611d72565b5b92915050565b7f4e487b7100000000000000000000000000000000000000000000000000000000600052603260045260246000fd5b7f4d696c6573746f6e6520616c726561647920636f6d706c657465640000000000600082015250565b6000611e3a601b836115e6565b9150611e4582611e04565b602082019050919050565b60006020820190508181036000830152611e6981611e2d565b9050919050565b7f54656e64657220697320616c726561647920636c6f7365640000000000000000600082015250565b6000611ea66018836115e6565b9150611eb182611e70565b602082019050919050565b60006020820190508181036000830152611ed581611e99565b9050919050565b7f53656c65637465642061646472657373206973206e6f7420612076616c69642060008201527f6269646465720000000000000000000000000000000000000000000000000000602082015250565b6000611f386026836115e6565b9150611f4382611edc565b604082019050919050565b60006020820190508181036000830152611f6781611f2b565b9050919050565b7f54656e64657220697320636c6f73656400000000000000000000000000000000600082015250565b6000611fa46010836115e6565b9150611faf82611f6e565b602082019050919050565b60006020820190508181036000830152611fd381611f97565b9050919050565b7f42696420616d6f756e7420697320746f6f206c6f770000000000000000000000600082015250565b60006120106015836115e6565b915061201b82611fda565b602082019050919050565b6000602082019050818103600083015261203f81612003565b9050919050565b7f4f6e6c79207468652070726f6a6563742077696e6e65722063616e207065726660008201527f6f726d207468697320616374696f6e0000000000000000000000000000000000602082015250565b60006120a2602f836115e6565b91506120ad82612046565b604082019050919050565b600060208201905081810360008301526120d181612095565b9050919050565b7f496e73756666696369656e742066756e647320666f722074686973206d696c6560008201527f73746f6e65000000000000000000000000000000000000000000000000000000602082015250565b60006121346025836115e6565b915061213f826120d8565b604082019050919050565b6000602082019050818103600083015261216381612127565b9050919050565b6000612175826113c6565b9150612180836113c6565b925082820190508082111561219857612197611d72565b5b92915050565b60008190508160005260206000209050919050565b60006020601f8301049050919050565b600082821b905092915050565b6000600883026122007fffffffffffffffffffffffffffffffffffffffffffffffffffffffffffffffff826121c3565b61220a86836121c3565b95508019841693508086168417925050509392505050565b6000819050919050565b600061224761224261223d846113c6565b612222565b6113c6565b9050919050565b6000819050919050565b6122618361222c565b61227561226d8261224e565b8484546121d0565b825550505050565b600090565b61228a61227d565b612295818484612258565b505050565b5b818110156122b9576122ae600082612282565b60018101905061229b565b5050565b601f8211156122fe576122cf8161219e565b6122d8846121b3565b810160208510156122e7578190505b6122fb6122f3856121b3565b83018261229a565b50505b505050565b600082821c905092915050565b600061232160001984600802612303565b1980831691505092915050565b600061233a8383612310565b9150826002028217905092915050565b612353826115db565b67ffffffffffffffff81111561236c5761236b611a77565b5b6123768254611caf565b6123818282856122bd565b600060209050601f8311600181146123b457600084156123a2578287015190505b6123ac858261232e565b865550612414565b601f1984166123c28661219e565b60005b828110156123ea578489015182556001820191506020850194506020810190506123c5565b868310156124075784890151612403601f891682612310565b8355505b6001600288020188555050505b505050505050565b6000612427826113c6565b91507fffffffffffffffffffffffffffffffffffffffffffffffffffffffffffffffff820361245957612458611d72565b5b60018201905091905056fea264697066735822122079020f4bdc7045f0c02edd52c19717e0fafd5ffa7eeaa305f98e0b8c2dbbe50a64736f6c634300081b0033",
  "linkReferences": {},
  "deployedLinkReferences": {}
}