{
  "_format": "hh-sol-artifact-1",
  "contractName": "Tender",
  "sourceName": "contracts/Tender.sol",
  "abi": [
    {
      "inputs": [],
      "stateMutability": "nonpayable",
      "type": "constructor"
    },
    {
      "inputs": [
        {
          "internalType": "uint256",
          "name": "",
          "type": "uint256"
        },
        {
          "internalType": "uint256",
          "name": "",
          "type": "uint256"
        }
      ],
      "name": "bids",
      "outputs": [
        {
          "internalType": "uint256",
          "name": "tenderId",
          "type": "uint256"
        },
        {
          "internalType": "address",
          "name": "bidder",
          "type": "address"
        },
        {
          "internalType": "uint256",
          "name": "bidAmount",
          "type": "uint256"
        }
      ],
      "stateMutability": "view",
      "type": "function"
    },
    {
      "inputs": [
        {
          "internalType": "string",
          "name": "description",
          "type": "string"
        },
        {
          "internalType": "uint256",
          "name": "minBidAmount",
          "type": "uint256"
        }
      ],
      "name": "createTender",
      "outputs": [],
      "stateMutability": "nonpayable",
      "type": "function"
    },
    {
      "inputs": [
        {
          "internalType": "uint256",
          "name": "tenderId",
          "type": "uint256"
        }
      ],
      "name": "getBids",
      "outputs": [
        {
          "components": [
            {
              "internalType": "uint256",
              "name": "tenderId",
              "type": "uint256"
            },
            {
              "internalType": "address",
              "name": "bidder",
              "type": "address"
            },
            {
              "internalType": "uint256",
              "name": "bidAmount",
              "type": "uint256"
            }
          ],
          "internalType": "struct Tender.Bid[]",
          "name": "",
          "type": "tuple[]"
        }
      ],
      "stateMutability": "view",
      "type": "function"
    },
    {
      "inputs": [
        {
          "internalType": "uint256",
          "name": "tenderId",
          "type": "uint256"
        }
      ],
      "name": "getTenderDetails",
      "outputs": [
        {
          "components": [
            {
              "internalType": "uint256",
              "name": "id",
              "type": "uint256"
            },
            {
              "internalType": "string",
              "name": "description",
              "type": "string"
            },
            {
              "internalType": "uint256",
              "name": "minBidAmount",
              "type": "uint256"
            },
            {
              "internalType": "bool",
              "name": "isOpen",
              "type": "bool"
            },
            {
              "internalType": "address",
              "name": "winner",
              "type": "address"
            }
          ],
          "internalType": "struct Tender.TenderDetails",
          "name": "",
          "type": "tuple"
        }
      ],
      "stateMutability": "view",
      "type": "function"
    },
    {
      "inputs": [],
      "name": "governmentOfficial",
      "outputs": [
        {
          "internalType": "address",
          "name": "",
          "type": "address"
        }
      ],
      "stateMutability": "view",
      "type": "function"
    },
    {
      "inputs": [
        {
          "internalType": "uint256",
          "name": "tenderId",
          "type": "uint256"
        }
      ],
      "name": "selectWinner",
      "outputs": [],
      "stateMutability": "nonpayable",
      "type": "function"
    },
    {
      "inputs": [
        {
          "internalType": "uint256",
          "name": "tenderId",
          "type": "uint256"
        },
        {
          "internalType": "uint256",
          "name": "bidAmount",
          "type": "uint256"
        }
      ],
      "name": "submitBid",
      "outputs": [],
      "stateMutability": "nonpayable",
      "type": "function"
    },
    {
      "inputs": [],
      "name": "tenderCounter",
      "outputs": [
        {
          "internalType": "uint256",
          "name": "",
          "type": "uint256"
        }
      ],
      "stateMutability": "view",
      "type": "function"
    },
    {
      "inputs": [
        {
          "internalType": "uint256",
          "name": "",
          "type": "uint256"
        }
      ],
      "name": "tenders",
      "outputs": [
        {
          "internalType": "uint256",
          "name": "id",
          "type": "uint256"
        },
        {
          "internalType": "string",
          "name": "description",
          "type": "string"
        },
        {
          "internalType": "uint256",
          "name": "minBidAmount",
          "type": "uint256"
        },
        {
          "internalType": "bool",
          "name": "isOpen",
          "type": "bool"
        },
        {
          "internalType": "address",
          "name": "winner",
          "type": "address"
        }
      ],
      "stateMutability": "view",
      "type": "function"
    }
  ],
  "bytecode": "0x6080604052348015600f57600080fd5b5033600360006101000a81548173ffffffffffffffffffffffffffffffffffffffff021916908373ffffffffffffffffffffffffffffffffffffffff160217905550611755806100606000396000f3fe608060405234801561001057600080fd5b50600436106100935760003560e01c806353ee895d1161006657806353ee895d1461013657806354b0799a146101665780637b3c4baa14610182578063b821da1b146101b4578063bfb9e8f3146101d057610093565b8063131d9a271461009857806330d2210c146100c8578063465e1def146100e65780634c524be41461011a575b600080fd5b6100b260048036038101906100ad9190610be3565b6101ee565b6040516100bf9190610d51565b60405180910390f35b6100d06102ca565b6040516100dd9190610d82565b60405180910390f35b61010060048036038101906100fb9190610be3565b6102d0565b604051610111959493929190610e57565b60405180910390f35b610134600480360381019061012f9190610be3565b6103bb565b005b610150600480360381019061014b9190610be3565b610661565b60405161015d9190610f80565b60405180910390f35b610180600480360381019061017b91906110d7565b6107a5565b005b61019c60048036038101906101979190611133565b61093b565b6040516101ab93929190611173565b60405180910390f35b6101ce60048036038101906101c99190611133565b6109a2565b005b6101d8610b2c565b6040516101e591906111aa565b60405180910390f35b606060026000838152602001908152602001600020805480602002602001604051908101604052809291908181526020016000905b828210156102bf5783829060005260206000209060030201604051806060016040529081600082015481526020016001820160009054906101000a900473ffffffffffffffffffffffffffffffffffffffff1673ffffffffffffffffffffffffffffffffffffffff1673ffffffffffffffffffffffffffffffffffffffff16815260200160028201548152505081526020019060010190610223565b505050509050919050565b60005481565b60016020528060005260406000206000915090508060000154908060010180546102f9906111f4565b80601f0160208091040260200160405190810160405280929190818152602001828054610325906111f4565b80156103725780601f1061034757610100808354040283529160200191610372565b820191906000526020600020905b81548152906001019060200180831161035557829003601f168201915b5050505050908060020154908060030160009054906101000a900460ff16908060030160019054906101000a900473ffffffffffffffffffffffffffffffffffffffff16905085565b600360009054906101000a900473ffffffffffffffffffffffffffffffffffffffff1673ffffffffffffffffffffffffffffffffffffffff163373ffffffffffffffffffffffffffffffffffffffff161461044b576040517f08c379a000000000000000000000000000000000000000000000000000000000815260040161044290611297565b60405180910390fd5b6001600082815260200190815260200160002060030160009054906101000a900460ff166104ae576040517f08c379a00000000000000000000000000000000000000000000000000000000081526004016104a590611303565b60405180910390fd5b60007fffffffffffffffffffffffffffffffffffffffffffffffffffffffffffffffff9050600080600090505b60026000858152602001908152602001600020805490508110156105d7578260026000868152602001908152602001600020828154811061051f5761051e611323565b5b90600052602060002090600302016002015410156105ca5760026000858152602001908152602001600020818154811061055c5761055b611323565b5b906000526020600020906003020160020154925060026000858152602001908152602001600020818154811061059557610594611323565b5b906000526020600020906003020160010160009054906101000a900473ffffffffffffffffffffffffffffffffffffffff1691505b80806001019150506104db565b50806001600085815260200190815260200160002060030160016101000a81548173ffffffffffffffffffffffffffffffffffffffff021916908373ffffffffffffffffffffffffffffffffffffffff16021790555060006001600085815260200190815260200160002060030160006101000a81548160ff021916908315150217905550505050565b610669610b52565b600160008381526020019081526020016000206040518060a0016040529081600082015481526020016001820180546106a1906111f4565b80601f01602080910402602001604051908101604052809291908181526020018280546106cd906111f4565b801561071a5780601f106106ef5761010080835404028352916020019161071a565b820191906000526020600020905b8154815290600101906020018083116106fd57829003601f168201915b50505050508152602001600282015481526020016003820160009054906101000a900460ff161515151581526020016003820160019054906101000a900473ffffffffffffffffffffffffffffffffffffffff1673ffffffffffffffffffffffffffffffffffffffff1673ffffffffffffffffffffffffffffffffffffffff16815250509050919050565b600360009054906101000a900473ffffffffffffffffffffffffffffffffffffffff1673ffffffffffffffffffffffffffffffffffffffff163373ffffffffffffffffffffffffffffffffffffffff1614610835576040517f08c379a000000000000000000000000000000000000000000000000000000000815260040161082c90611297565b60405180910390fd5b60008081548092919061084790611381565b91905055506040518060a001604052806000548152602001838152602001828152602001600115158152602001600073ffffffffffffffffffffffffffffffffffffffff1681525060016000805481526020019081526020016000206000820151816000015560208201518160010190816108c29190611575565b506040820151816002015560608201518160030160006101000a81548160ff02191690831515021790555060808201518160030160016101000a81548173ffffffffffffffffffffffffffffffffffffffff021916908373ffffffffffffffffffffffffffffffffffffffff1602179055509050505050565b6002602052816000526040600020818154811061095757600080fd5b9060005260206000209060030201600091509150508060000154908060010160009054906101000a900473ffffffffffffffffffffffffffffffffffffffff16908060020154905083565b6001600083815260200190815260200160002060030160009054906101000a900460ff16610a05576040517f08c379a00000000000000000000000000000000000000000000000000000000081526004016109fc90611693565b60405180910390fd5b6001600083815260200190815260200160002060020154811015610a5e576040517f08c379a0000000000000000000000000000000000000000000000000000000008152600401610a55906116ff565b60405180910390fd5b6002600083815260200190815260200160002060405180606001604052808481526020013373ffffffffffffffffffffffffffffffffffffffff1681526020018381525090806001815401808255809150506001900390600052602060002090600302016000909190919091506000820151816000015560208201518160010160006101000a81548173ffffffffffffffffffffffffffffffffffffffff021916908373ffffffffffffffffffffffffffffffffffffffff1602179055506040820151816002015550505050565b600360009054906101000a900473ffffffffffffffffffffffffffffffffffffffff1681565b6040518060a00160405280600081526020016060815260200160008152602001600015158152602001600073ffffffffffffffffffffffffffffffffffffffff1681525090565b6000604051905090565b600080fd5b600080fd5b6000819050919050565b610bc081610bad565b8114610bcb57600080fd5b50565b600081359050610bdd81610bb7565b92915050565b600060208284031215610bf957610bf8610ba3565b5b6000610c0784828501610bce565b91505092915050565b600081519050919050565b600082825260208201905092915050565b6000819050602082019050919050565b610c4581610bad565b82525050565b600073ffffffffffffffffffffffffffffffffffffffff82169050919050565b6000610c7682610c4b565b9050919050565b610c8681610c6b565b82525050565b606082016000820151610ca26000850182610c3c565b506020820151610cb56020850182610c7d565b506040820151610cc86040850182610c3c565b50505050565b6000610cda8383610c8c565b60608301905092915050565b6000602082019050919050565b6000610cfe82610c10565b610d088185610c1b565b9350610d1383610c2c565b8060005b83811015610d44578151610d2b8882610cce565b9750610d3683610ce6565b925050600181019050610d17565b5085935050505092915050565b60006020820190508181036000830152610d6b8184610cf3565b905092915050565b610d7c81610bad565b82525050565b6000602082019050610d976000830184610d73565b92915050565b600081519050919050565b600082825260208201905092915050565b60005b83811015610dd7578082015181840152602081019050610dbc565b60008484015250505050565b6000601f19601f8301169050919050565b6000610dff82610d9d565b610e098185610da8565b9350610e19818560208601610db9565b610e2281610de3565b840191505092915050565b60008115159050919050565b610e4281610e2d565b82525050565b610e5181610c6b565b82525050565b600060a082019050610e6c6000830188610d73565b8181036020830152610e7e8187610df4565b9050610e8d6040830186610d73565b610e9a6060830185610e39565b610ea76080830184610e48565b9695505050505050565b600082825260208201905092915050565b6000610ecd82610d9d565b610ed78185610eb1565b9350610ee7818560208601610db9565b610ef081610de3565b840191505092915050565b610f0481610e2d565b82525050565b600060a083016000830151610f226000860182610c3c565b5060208301518482036020860152610f3a8282610ec2565b9150506040830151610f4f6040860182610c3c565b506060830151610f626060860182610efb565b506080830151610f756080860182610c7d565b508091505092915050565b60006020820190508181036000830152610f9a8184610f0a565b905092915050565b600080fd5b600080fd5b7f4e487b7100000000000000000000000000000000000000000000000000000000600052604160045260246000fd5b610fe482610de3565b810181811067ffffffffffffffff8211171561100357611002610fac565b5b80604052505050565b6000611016610b99565b90506110228282610fdb565b919050565b600067ffffffffffffffff82111561104257611041610fac565b5b61104b82610de3565b9050602081019050919050565b82818337600083830152505050565b600061107a61107584611027565b61100c565b90508281526020810184848401111561109657611095610fa7565b5b6110a1848285611058565b509392505050565b600082601f8301126110be576110bd610fa2565b5b81356110ce848260208601611067565b91505092915050565b600080604083850312156110ee576110ed610ba3565b5b600083013567ffffffffffffffff81111561110c5761110b610ba8565b5b611118858286016110a9565b925050602061112985828601610bce565b9150509250929050565b6000806040838503121561114a57611149610ba3565b5b600061115885828601610bce565b925050602061116985828601610bce565b9150509250929050565b60006060820190506111886000830186610d73565b6111956020830185610e48565b6111a26040830184610d73565b949350505050565b60006020820190506111bf6000830184610e48565b92915050565b7f4e487b7100000000000000000000000000000000000000000000000000000000600052602260045260246000fd5b6000600282049050600182168061120c57607f821691505b60208210810361121f5761121e6111c5565b5b50919050565b7f4f6e6c7920676f7665726e6d656e74206f6666696369616c732063616e20706560008201527f72666f726d207468697320616374696f6e000000000000000000000000000000602082015250565b6000611281603183610da8565b915061128c82611225565b604082019050919050565b600060208201905081810360008301526112b081611274565b9050919050565b7f54656e64657220697320616c726561647920636c6f7365640000000000000000600082015250565b60006112ed601883610da8565b91506112f8826112b7565b602082019050919050565b6000602082019050818103600083015261131c816112e0565b9050919050565b7f4e487b7100000000000000000000000000000000000000000000000000000000600052603260045260246000fd5b7f4e487b7100000000000000000000000000000000000000000000000000000000600052601160045260246000fd5b600061138c82610bad565b91507fffffffffffffffffffffffffffffffffffffffffffffffffffffffffffffffff82036113be576113bd611352565b5b600182019050919050565b60008190508160005260206000209050919050565b60006020601f8301049050919050565b600082821b905092915050565b60006008830261142b7fffffffffffffffffffffffffffffffffffffffffffffffffffffffffffffffff826113ee565b61143586836113ee565b95508019841693508086168417925050509392505050565b6000819050919050565b600061147261146d61146884610bad565b61144d565b610bad565b9050919050565b6000819050919050565b61148c83611457565b6114a061149882611479565b8484546113fb565b825550505050565b600090565b6114b56114a8565b6114c0818484611483565b505050565b5b818110156114e4576114d96000826114ad565b6001810190506114c6565b5050565b601f821115611529576114fa816113c9565b611503846113de565b81016020851015611512578190505b61152661151e856113de565b8301826114c5565b50505b505050565b600082821c905092915050565b600061154c6000198460080261152e565b1980831691505092915050565b6000611565838361153b565b9150826002028217905092915050565b61157e82610d9d565b67ffffffffffffffff81111561159757611596610fac565b5b6115a182546111f4565b6115ac8282856114e8565b600060209050601f8311600181146115df57600084156115cd578287015190505b6115d78582611559565b86555061163f565b601f1984166115ed866113c9565b60005b82811015611615578489015182556001820191506020850194506020810190506115f0565b86831015611632578489015161162e601f89168261153b565b8355505b6001600288020188555050505b505050505050565b7f54656e64657220697320636c6f73656400000000000000000000000000000000600082015250565b600061167d601083610da8565b915061168882611647565b602082019050919050565b600060208201905081810360008301526116ac81611670565b9050919050565b7f42696420616d6f756e7420697320746f6f206c6f770000000000000000000000600082015250565b60006116e9601583610da8565b91506116f4826116b3565b602082019050919050565b60006020820190508181036000830152611718816116dc565b905091905056fea2646970667358221220efe89d23c0c46f91523f4c99272f1dc0836d44683c8fe72db6179c0b2a2f9bc764736f6c634300081b0033",
  "linkReferences": {},
  "deployedLinkReferences": {}
}