{
  "_format": "hh-sol-artifact-1",
  "contractName": "Tender_Milestone",
  "sourceName": "contracts/Tender_Milestone.sol",
  "abi": [
    {
      "inputs": [],
      "stateMutability": "nonpayable",
      "type": "constructor"
    },
    {
      "inputs": [
        {
          "internalType": "uint256",
          "name": "tenderId",
          "type": "uint256"
        },
        {
          "internalType": "string",
          "name": "description",
          "type": "string"
        },
        {
          "internalType": "uint256",
          "name": "fundRequested",
          "type": "uint256"
        }
      ],
      "name": "addMilestone",
      "outputs": [],
      "stateMutability": "nonpayable",
      "type": "function"
    },
    {
      "inputs": [
        {
          "internalType": "uint256",
          "name": "tenderId",
          "type": "uint256"
        },
        {
          "internalType": "uint256",
          "name": "milestoneIndex",
          "type": "uint256"
        }
      ],
      "name": "approveMilestone",
      "outputs": [],
      "stateMutability": "nonpayable",
      "type": "function"
    },
    {
      "inputs": [
        {
          "internalType": "uint256",
          "name": "",
          "type": "uint256"
        },
        {
          "internalType": "uint256",
          "name": "",
          "type": "uint256"
        }
      ],
      "name": "bids",
      "outputs": [
        {
          "internalType": "uint256",
          "name": "tenderId",
          "type": "uint256"
        },
        {
          "internalType": "address",
          "name": "bidder",
          "type": "address"
        },
        {
          "internalType": "uint256",
          "name": "bidAmount",
          "type": "uint256"
        },
        {
          "internalType": "uint256",
          "name": "estimatedCost",
          "type": "uint256"
        }
      ],
      "stateMutability": "view",
      "type": "function"
    },
    {
      "inputs": [
        {
          "internalType": "uint256",
          "name": "tenderId",
          "type": "uint256"
        },
        {
          "internalType": "address",
          "name": "winnerAddress",
          "type": "address"
        },
        {
          "internalType": "uint256",
          "name": "finalCost",
          "type": "uint256"
        }
      ],
      "name": "chooseWinner",
      "outputs": [],
      "stateMutability": "nonpayable",
      "type": "function"
    },
    {
      "inputs": [
        {
          "internalType": "string",
          "name": "description",
          "type": "string"
        },
        {
          "internalType": "uint256",
          "name": "minBidAmount",
          "type": "uint256"
        }
      ],
      "name": "createTender",
      "outputs": [],
      "stateMutability": "nonpayable",
      "type": "function"
    },
    {
      "inputs": [
        {
          "internalType": "uint256",
          "name": "tenderId",
          "type": "uint256"
        }
      ],
      "name": "getBids",
      "outputs": [
        {
          "components": [
            {
              "internalType": "uint256",
              "name": "tenderId",
              "type": "uint256"
            },
            {
              "internalType": "address",
              "name": "bidder",
              "type": "address"
            },
            {
              "internalType": "uint256",
              "name": "bidAmount",
              "type": "uint256"
            },
            {
              "internalType": "uint256",
              "name": "estimatedCost",
              "type": "uint256"
            }
          ],
          "internalType": "struct Tender_Milestone.Bid[]",
          "name": "",
          "type": "tuple[]"
        }
      ],
      "stateMutability": "view",
      "type": "function"
    },
    {
      "inputs": [
        {
          "internalType": "uint256",
          "name": "tenderId",
          "type": "uint256"
        }
      ],
      "name": "getMilestones",
      "outputs": [
        {
          "components": [
            {
              "internalType": "string",
              "name": "description",
              "type": "string"
            },
            {
              "internalType": "uint256",
              "name": "fundRequested",
              "type": "uint256"
            },
            {
              "internalType": "bool",
              "name": "isApproved",
              "type": "bool"
            }
          ],
          "internalType": "struct Tender_Milestone.Milestone[]",
          "name": "",
          "type": "tuple[]"
        }
      ],
      "stateMutability": "view",
      "type": "function"
    },
    {
      "inputs": [
        {
          "internalType": "uint256",
          "name": "tenderId",
          "type": "uint256"
        }
      ],
      "name": "getTenderDetails",
      "outputs": [
        {
          "components": [
            {
              "internalType": "uint256",
              "name": "id",
              "type": "uint256"
            },
            {
              "internalType": "string",
              "name": "description",
              "type": "string"
            },
            {
              "internalType": "uint256",
              "name": "minBidAmount",
              "type": "uint256"
            },
            {
              "internalType": "bool",
              "name": "isOpen",
              "type": "bool"
            },
            {
              "internalType": "address",
              "name": "winner",
              "type": "address"
            },
            {
              "internalType": "uint256",
              "name": "estimateCost",
              "type": "uint256"
            },
            {
              "internalType": "uint256",
              "name": "finalCost",
              "type": "uint256"
            }
          ],
          "internalType": "struct Tender_Milestone.TenderDetails",
          "name": "",
          "type": "tuple"
        }
      ],
      "stateMutability": "view",
      "type": "function"
    },
    {
      "inputs": [],
      "name": "governmentOfficial",
      "outputs": [
        {
          "internalType": "address",
          "name": "",
          "type": "address"
        }
      ],
      "stateMutability": "view",
      "type": "function"
    },
    {
      "inputs": [
        {
          "internalType": "uint256",
          "name": "",
          "type": "uint256"
        },
        {
          "internalType": "uint256",
          "name": "",
          "type": "uint256"
        }
      ],
      "name": "milestones",
      "outputs": [
        {
          "internalType": "string",
          "name": "description",
          "type": "string"
        },
        {
          "internalType": "uint256",
          "name": "fundRequested",
          "type": "uint256"
        },
        {
          "internalType": "bool",
          "name": "isApproved",
          "type": "bool"
        }
      ],
      "stateMutability": "view",
      "type": "function"
    },
    {
      "inputs": [
        {
          "internalType": "uint256",
          "name": "tenderId",
          "type": "uint256"
        },
        {
          "internalType": "uint256",
          "name": "bidAmount",
          "type": "uint256"
        },
        {
          "internalType": "uint256",
          "name": "estimatedCost",
          "type": "uint256"
        }
      ],
      "name": "submitBid",
      "outputs": [],
      "stateMutability": "nonpayable",
      "type": "function"
    },
    {
      "inputs": [],
      "name": "tenderCounter",
      "outputs": [
        {
          "internalType": "uint256",
          "name": "",
          "type": "uint256"
        }
      ],
      "stateMutability": "view",
      "type": "function"
    },
    {
      "inputs": [
        {
          "internalType": "uint256",
          "name": "",
          "type": "uint256"
        }
      ],
      "name": "tenders",
      "outputs": [
        {
          "internalType": "uint256",
          "name": "id",
          "type": "uint256"
        },
        {
          "internalType": "string",
          "name": "description",
          "type": "string"
        },
        {
          "internalType": "uint256",
          "name": "minBidAmount",
          "type": "uint256"
        },
        {
          "internalType": "bool",
          "name": "isOpen",
          "type": "bool"
        },
        {
          "internalType": "address",
          "name": "winner",
          "type": "address"
        },
        {
          "internalType": "uint256",
          "name": "estimateCost",
          "type": "uint256"
        },
        {
          "internalType": "uint256",
          "name": "finalCost",
          "type": "uint256"
        }
      ],
      "stateMutability": "view",
      "type": "function"
    }
  ],
  "bytecode": "0x6080604052348015600f57600080fd5b5033600460006101000a81548173ffffffffffffffffffffffffffffffffffffffff021916908373ffffffffffffffffffffffffffffffffffffffff1602179055506124da806100606000396000f3fe608060405234801561001057600080fd5b50600436106100cf5760003560e01c8063465e1def1161008c5780637b3c4baa116100665780637b3c4baa1461023e57806398df912e14610271578063bfb9e8f31461028d578063dd065c53146102ab576100cf565b8063465e1def146101bc57806353ee895d146101f257806354b0799a14610222576100cf565b8063131d9a27146100d45780631c376c631461010457806320913da51461013657806330d2210c14610152578063416f222a1461017057806342c549c01461018c575b600080fd5b6100ee60048036038101906100e9919061130c565b6102c7565b6040516100fb919061148d565b60405180910390f35b61011e600480360381019061011991906114af565b6103ad565b60405161012d939291906115a9565b60405180910390f35b610150600480360381019061014b91906114af565b610489565b005b61015a610648565b60405161016791906115e7565b60405180910390f35b61018a60048036038101906101859190611602565b61064e565b005b6101a660048036038101906101a1919061130c565b61082c565b6040516101b391906117c0565b60405180910390f35b6101d660048036038101906101d1919061130c565b610955565b6040516101e997969594939291906117f1565b60405180910390f35b61020c6004803603810190610207919061130c565b610a4c565b6040516102199190611903565b60405180910390f35b61023c60048036038101906102379190611a5a565b610ba4565b005b610258600480360381019061025391906114af565b610d5c565b6040516102689493929190611ab6565b60405180910390f35b61028b60048036038101906102869190611afb565b610dc9565b005b610295610f10565b6040516102a29190611b6a565b60405180910390f35b6102c560048036038101906102c09190611bb1565b610f36565b005b606060026000838152602001908152602001600020805480602002602001604051908101604052809291908181526020016000905b828210156103a25783829060005260206000209060040201604051806080016040529081600082015481526020016001820160009054906101000a900473ffffffffffffffffffffffffffffffffffffffff1673ffffffffffffffffffffffffffffffffffffffff1673ffffffffffffffffffffffffffffffffffffffff16815260200160028201548152602001600382015481525050815260200190600101906102fc565b505050509050919050565b600360205281600052604060002081815481106103c957600080fd5b9060005260206000209060030201600091509150508060000180546103ed90611c33565b80601f016020809104026020016040519081016040528092919081815260200182805461041990611c33565b80156104665780601f1061043b57610100808354040283529160200191610466565b820191906000526020600020905b81548152906001019060200180831161044957829003601f168201915b5050505050908060010154908060020160009054906101000a900460ff16905083565b600460009054906101000a900473ffffffffffffffffffffffffffffffffffffffff1673ffffffffffffffffffffffffffffffffffffffff163373ffffffffffffffffffffffffffffffffffffffff1614610519576040517f08c379a000000000000000000000000000000000000000000000000000000000815260040161051090611cd6565b60405180910390fd5b60036000838152602001908152602001600020805490508110610571576040517f08c379a000000000000000000000000000000000000000000000000000000000815260040161056890611d42565b60405180910390fd5b60036000838152602001908152602001600020818154811061059657610595611d62565b5b906000526020600020906003020160020160009054906101000a900460ff16156105f5576040517f08c379a00000000000000000000000000000000000000000000000000000000081526004016105ec90611ddd565b60405180910390fd5b600160036000848152602001908152602001600020828154811061061c5761061b611d62565b5b906000526020600020906003020160020160006101000a81548160ff0219169083151502179055505050565b60005481565b6001600084815260200190815260200160002060030160009054906101000a900460ff166106b1576040517f08c379a00000000000000000000000000000000000000000000000000000000081526004016106a890611e49565b60405180910390fd5b600160008481526020019081526020016000206002015482101561070a576040517f08c379a000000000000000000000000000000000000000000000000000000000815260040161070190611eb5565b60405180910390fd5b8181101561074d576040517f08c379a000000000000000000000000000000000000000000000000000000000815260040161074490611f47565b60405180910390fd5b6002600084815260200190815260200160002060405180608001604052808581526020013373ffffffffffffffffffffffffffffffffffffffff1681526020018481526020018381525090806001815401808255809150506001900390600052602060002090600402016000909190919091506000820151816000015560208201518160010160006101000a81548173ffffffffffffffffffffffffffffffffffffffff021916908373ffffffffffffffffffffffffffffffffffffffff16021790555060408201518160020155606082015181600301555050505050565b606060036000838152602001908152602001600020805480602002602001604051908101604052809291908181526020016000905b8282101561094a578382906000526020600020906003020160405180606001604052908160008201805461089490611c33565b80601f01602080910402602001604051908101604052809291908181526020018280546108c090611c33565b801561090d5780601f106108e25761010080835404028352916020019161090d565b820191906000526020600020905b8154815290600101906020018083116108f057829003601f168201915b50505050508152602001600182015481526020016002820160009054906101000a900460ff16151515158152505081526020019060010190610861565b505050509050919050565b600160205280600052604060002060009150905080600001549080600101805461097e90611c33565b80601f01602080910402602001604051908101604052809291908181526020018280546109aa90611c33565b80156109f75780601f106109cc576101008083540402835291602001916109f7565b820191906000526020600020905b8154815290600101906020018083116109da57829003601f168201915b5050505050908060020154908060030160009054906101000a900460ff16908060030160019054906101000a900473ffffffffffffffffffffffffffffffffffffffff16908060040154908060050154905087565b610a5461126d565b600160008381526020019081526020016000206040518060e001604052908160008201548152602001600182018054610a8c90611c33565b80601f0160208091040260200160405190810160405280929190818152602001828054610ab890611c33565b8015610b055780601f10610ada57610100808354040283529160200191610b05565b820191906000526020600020905b815481529060010190602001808311610ae857829003601f168201915b50505050508152602001600282015481526020016003820160009054906101000a900460ff161515151581526020016003820160019054906101000a900473ffffffffffffffffffffffffffffffffffffffff1673ffffffffffffffffffffffffffffffffffffffff1673ffffffffffffffffffffffffffffffffffffffff168152602001600482015481526020016005820154815250509050919050565b600460009054906101000a900473ffffffffffffffffffffffffffffffffffffffff1673ffffffffffffffffffffffffffffffffffffffff163373ffffffffffffffffffffffffffffffffffffffff1614610c34576040517f08c379a0000000000000000000000000000000000000000000000000000000008152600401610c2b90611cd6565b60405180910390fd5b600080815480929190610c4690611f96565b91905055506040518060e001604052806000548152602001838152602001828152602001600115158152602001600073ffffffffffffffffffffffffffffffffffffffff1681526020016000815260200160008152506001600080548152602001908152602001600020600082015181600001556020820151816001019081610ccf919061218a565b506040820151816002015560608201518160030160006101000a81548160ff02191690831515021790555060808201518160030160016101000a81548173ffffffffffffffffffffffffffffffffffffffff021916908373ffffffffffffffffffffffffffffffffffffffff16021790555060a0820151816004015560c082015181600501559050505050565b60026020528160005260406000208181548110610d7857600080fd5b9060005260206000209060040201600091509150508060000154908060010160009054906101000a900473ffffffffffffffffffffffffffffffffffffffff16908060020154908060030154905084565b826001600082815260200190815260200160002060030160019054906101000a900473ffffffffffffffffffffffffffffffffffffffff1673ffffffffffffffffffffffffffffffffffffffff163373ffffffffffffffffffffffffffffffffffffffff1614610e6e576040517f08c379a0000000000000000000000000000000000000000000000000000000008152600401610e65906122ce565b60405180910390fd5b6003600085815260200190815260200160002060405180606001604052808581526020018481526020016000151581525090806001815401808255809150506001900390600052602060002090600302016000909190919091506000820151816000019081610edd919061218a565b506020820151816001015560408201518160020160006101000a81548160ff021916908315150217905550505050505050565b600460009054906101000a900473ffffffffffffffffffffffffffffffffffffffff1681565b600460009054906101000a900473ffffffffffffffffffffffffffffffffffffffff1673ffffffffffffffffffffffffffffffffffffffff163373ffffffffffffffffffffffffffffffffffffffff1614610fc6576040517f08c379a0000000000000000000000000000000000000000000000000000000008152600401610fbd90611cd6565b60405180910390fd5b6001600084815260200190815260200160002060030160009054906101000a900460ff16611029576040517f08c379a00000000000000000000000000000000000000000000000000000000081526004016110209061233a565b60405180910390fd5b60008080600090505b6002600087815260200190815260200160002080549050811015611128578473ffffffffffffffffffffffffffffffffffffffff1660026000888152602001908152602001600020828154811061108c5761108b611d62565b5b906000526020600020906004020160010160009054906101000a900473ffffffffffffffffffffffffffffffffffffffff1673ffffffffffffffffffffffffffffffffffffffff160361111b576001925060026000878152602001908152602001600020818154811061110257611101611d62565b5b9060005260206000209060040201600301549150611128565b8080600101915050611032565b5081611169576040517f08c379a0000000000000000000000000000000000000000000000000000000008152600401611160906123cc565b60405180910390fd5b808310156111ac576040517f08c379a00000000000000000000000000000000000000000000000000000000081526004016111a390612484565b60405180910390fd5b836001600087815260200190815260200160002060030160016101000a81548173ffffffffffffffffffffffffffffffffffffffff021916908373ffffffffffffffffffffffffffffffffffffffff16021790555060006001600087815260200190815260200160002060030160006101000a81548160ff0219169083151502179055508060016000878152602001908152602001600020600401819055508260016000878152602001908152602001600020600501819055505050505050565b6040518060e00160405280600081526020016060815260200160008152602001600015158152602001600073ffffffffffffffffffffffffffffffffffffffff16815260200160008152602001600081525090565b6000604051905090565b600080fd5b600080fd5b6000819050919050565b6112e9816112d6565b81146112f457600080fd5b50565b600081359050611306816112e0565b92915050565b600060208284031215611322576113216112cc565b5b6000611330848285016112f7565b91505092915050565b600081519050919050565b600082825260208201905092915050565b6000819050602082019050919050565b61136e816112d6565b82525050565b600073ffffffffffffffffffffffffffffffffffffffff82169050919050565b600061139f82611374565b9050919050565b6113af81611394565b82525050565b6080820160008201516113cb6000850182611365565b5060208201516113de60208501826113a6565b5060408201516113f16040850182611365565b5060608201516114046060850182611365565b50505050565b600061141683836113b5565b60808301905092915050565b6000602082019050919050565b600061143a82611339565b6114448185611344565b935061144f83611355565b8060005b83811015611480578151611467888261140a565b975061147283611422565b925050600181019050611453565b5085935050505092915050565b600060208201905081810360008301526114a7818461142f565b905092915050565b600080604083850312156114c6576114c56112cc565b5b60006114d4858286016112f7565b92505060206114e5858286016112f7565b9150509250929050565b600081519050919050565b600082825260208201905092915050565b60005b8381101561152957808201518184015260208101905061150e565b60008484015250505050565b6000601f19601f8301169050919050565b6000611551826114ef565b61155b81856114fa565b935061156b81856020860161150b565b61157481611535565b840191505092915050565b611588816112d6565b82525050565b60008115159050919050565b6115a38161158e565b82525050565b600060608201905081810360008301526115c38186611546565b90506115d2602083018561157f565b6115df604083018461159a565b949350505050565b60006020820190506115fc600083018461157f565b92915050565b60008060006060848603121561161b5761161a6112cc565b5b6000611629868287016112f7565b935050602061163a868287016112f7565b925050604061164b868287016112f7565b9150509250925092565b600081519050919050565b600082825260208201905092915050565b6000819050602082019050919050565b600082825260208201905092915050565b600061169d826114ef565b6116a78185611681565b93506116b781856020860161150b565b6116c081611535565b840191505092915050565b6116d48161158e565b82525050565b600060608301600083015184820360008601526116f78282611692565b915050602083015161170c6020860182611365565b50604083015161171f60408601826116cb565b508091505092915050565b600061173683836116da565b905092915050565b6000602082019050919050565b600061175682611655565b6117608185611660565b93508360208202850161177285611671565b8060005b858110156117ae578484038952815161178f858261172a565b945061179a8361173e565b925060208a01995050600181019050611776565b50829750879550505050505092915050565b600060208201905081810360008301526117da818461174b565b905092915050565b6117eb81611394565b82525050565b600060e082019050611806600083018a61157f565b81810360208301526118188189611546565b9050611827604083018861157f565b611834606083018761159a565b61184160808301866117e2565b61184e60a083018561157f565b61185b60c083018461157f565b98975050505050505050565b600060e08301600083015161187f6000860182611365565b50602083015184820360208601526118978282611692565b91505060408301516118ac6040860182611365565b5060608301516118bf60608601826116cb565b5060808301516118d260808601826113a6565b5060a08301516118e560a0860182611365565b5060c08301516118f860c0860182611365565b508091505092915050565b6000602082019050818103600083015261191d8184611867565b905092915050565b600080fd5b600080fd5b7f4e487b7100000000000000000000000000000000000000000000000000000000600052604160045260246000fd5b61196782611535565b810181811067ffffffffffffffff821117156119865761198561192f565b5b80604052505050565b60006119996112c2565b90506119a5828261195e565b919050565b600067ffffffffffffffff8211156119c5576119c461192f565b5b6119ce82611535565b9050602081019050919050565b82818337600083830152505050565b60006119fd6119f8846119aa565b61198f565b905082815260208101848484011115611a1957611a1861192a565b5b611a248482856119db565b509392505050565b600082601f830112611a4157611a40611925565b5b8135611a518482602086016119ea565b91505092915050565b60008060408385031215611a7157611a706112cc565b5b600083013567ffffffffffffffff811115611a8f57611a8e6112d1565b5b611a9b85828601611a2c565b9250506020611aac858286016112f7565b9150509250929050565b6000608082019050611acb600083018761157f565b611ad860208301866117e2565b611ae5604083018561157f565b611af2606083018461157f565b95945050505050565b600080600060608486031215611b1457611b136112cc565b5b6000611b22868287016112f7565b935050602084013567ffffffffffffffff811115611b4357611b426112d1565b5b611b4f86828701611a2c565b9250506040611b60868287016112f7565b9150509250925092565b6000602082019050611b7f60008301846117e2565b92915050565b611b8e81611394565b8114611b9957600080fd5b50565b600081359050611bab81611b85565b92915050565b600080600060608486031215611bca57611bc96112cc565b5b6000611bd8868287016112f7565b9350506020611be986828701611b9c565b9250506040611bfa868287016112f7565b9150509250925092565b7f4e487b7100000000000000000000000000000000000000000000000000000000600052602260045260246000fd5b60006002820490506001821680611c4b57607f821691505b602082108103611c5e57611c5d611c04565b5b50919050565b7f4f6e6c7920676f7665726e6d656e74206f6666696369616c732063616e20706560008201527f72666f726d207468697320616374696f6e000000000000000000000000000000602082015250565b6000611cc06031836114fa565b9150611ccb82611c64565b604082019050919050565b60006020820190508181036000830152611cef81611cb3565b9050919050565b7f496e76616c6964206d696c6573746f6e6520696e646578000000000000000000600082015250565b6000611d2c6017836114fa565b9150611d3782611cf6565b602082019050919050565b60006020820190508181036000830152611d5b81611d1f565b9050919050565b7f4e487b7100000000000000000000000000000000000000000000000000000000600052603260045260246000fd5b7f4d696c6573746f6e6520616c726561647920617070726f766564000000000000600082015250565b6000611dc7601a836114fa565b9150611dd282611d91565b602082019050919050565b60006020820190508181036000830152611df681611dba565b9050919050565b7f54656e64657220697320636c6f73656400000000000000000000000000000000600082015250565b6000611e336010836114fa565b9150611e3e82611dfd565b602082019050919050565b60006020820190508181036000830152611e6281611e26565b9050919050565b7f42696420616d6f756e7420697320746f6f206c6f770000000000000000000000600082015250565b6000611e9f6015836114fa565b9150611eaa82611e69565b602082019050919050565b60006020820190508181036000830152611ece81611e92565b9050919050565b7f457374696d6174656420636f73742073686f756c64206265206772656174657260008201527f207468616e206f7220657175616c20746f207468652062696420616d6f756e74602082015250565b6000611f316040836114fa565b9150611f3c82611ed5565b604082019050919050565b60006020820190508181036000830152611f6081611f24565b9050919050565b7f4e487b7100000000000000000000000000000000000000000000000000000000600052601160045260246000fd5b6000611fa1826112d6565b91507fffffffffffffffffffffffffffffffffffffffffffffffffffffffffffffffff8203611fd357611fd2611f67565b5b600182019050919050565b60008190508160005260206000209050919050565b60006020601f8301049050919050565b600082821b905092915050565b6000600883026120407fffffffffffffffffffffffffffffffffffffffffffffffffffffffffffffffff82612003565b61204a8683612003565b95508019841693508086168417925050509392505050565b6000819050919050565b600061208761208261207d846112d6565b612062565b6112d6565b9050919050565b6000819050919050565b6120a18361206c565b6120b56120ad8261208e565b848454612010565b825550505050565b600090565b6120ca6120bd565b6120d5818484612098565b505050565b5b818110156120f9576120ee6000826120c2565b6001810190506120db565b5050565b601f82111561213e5761210f81611fde565b61211884611ff3565b81016020851015612127578190505b61213b61213385611ff3565b8301826120da565b50505b505050565b600082821c905092915050565b600061216160001984600802612143565b1980831691505092915050565b600061217a8383612150565b9150826002028217905092915050565b612193826114ef565b67ffffffffffffffff8111156121ac576121ab61192f565b5b6121b68254611c33565b6121c18282856120fd565b600060209050601f8311600181146121f457600084156121e2578287015190505b6121ec858261216e565b865550612254565b601f19841661220286611fde565b60005b8281101561222a57848901518255600182019150602085019450602081019050612205565b868310156122475784890151612243601f891682612150565b8355505b6001600288020188555050505b505050505050565b7f4f6e6c79207468652077696e6e696e67206269646465722063616e207065726660008201527f6f726d207468697320616374696f6e0000000000000000000000000000000000602082015250565b60006122b8602f836114fa565b91506122c38261225c565b604082019050919050565b600060208201905081810360008301526122e7816122ab565b9050919050565b7f54656e64657220697320616c726561647920636c6f7365640000000000000000600082015250565b60006123246018836114fa565b915061232f826122ee565b602082019050919050565b6000602082019050818103600083015261235381612317565b9050919050565b7f53656c65637465642061646472657373206973206e6f7420612076616c69642060008201527f6269646465720000000000000000000000000000000000000000000000000000602082015250565b60006123b66026836114fa565b91506123c18261235a565b604082019050919050565b600060208201905081810360008301526123e5816123a9565b9050919050565b7f46696e616c20636f7374206d7573742062652067726561746572207468616e2060008201527f6f7220657175616c20746f207468652077696e6e6572277320657374696d617460208201527f656420636f737400000000000000000000000000000000000000000000000000604082015250565b600061246e6047836114fa565b9150612479826123ec565b606082019050919050565b6000602082019050818103600083015261249d81612461565b905091905056fea264697066735822122021bc47e943908f9787fa67fa0b4993c585236afedc2e5b3499c74840f90986f764736f6c634300081b0033",
  "linkReferences": {},
  "deployedLinkReferences": {}
}